{
  "_format": "hh-sol-artifact-1",
  "contractName": "NFTMarketplace",
  "sourceName": "contracts/NFTMarket.sol",
  "abi": [
    {
      "inputs": [],
      "stateMutability": "nonpayable",
      "type": "constructor"
    },
    {
      "anonymous": false,
      "inputs": [
        {
          "indexed": true,
          "internalType": "address",
          "name": "owner",
          "type": "address"
        },
        {
          "indexed": true,
          "internalType": "address",
          "name": "approved",
          "type": "address"
        },
        {
          "indexed": true,
          "internalType": "uint256",
          "name": "tokenId",
          "type": "uint256"
        }
      ],
      "name": "Approval",
      "type": "event"
    },
    {
      "anonymous": false,
      "inputs": [
        {
          "indexed": true,
          "internalType": "address",
          "name": "owner",
          "type": "address"
        },
        {
          "indexed": true,
          "internalType": "address",
          "name": "operator",
          "type": "address"
        },
        {
          "indexed": false,
          "internalType": "bool",
          "name": "approved",
          "type": "bool"
        }
      ],
      "name": "ApprovalForAll",
      "type": "event"
    },
    {
      "anonymous": false,
      "inputs": [
        {
          "indexed": false,
          "internalType": "uint256",
          "name": "_fromTokenId",
          "type": "uint256"
        },
        {
          "indexed": false,
          "internalType": "uint256",
          "name": "_toTokenId",
          "type": "uint256"
        }
      ],
      "name": "BatchMetadataUpdate",
      "type": "event"
    },
    {
      "anonymous": false,
      "inputs": [
        {
          "indexed": true,
          "internalType": "uint256",
          "name": "tokenId",
          "type": "uint256"
        },
        {
          "indexed": false,
          "internalType": "address",
          "name": "seller",
          "type": "address"
        },
        {
          "indexed": false,
          "internalType": "address",
          "name": "owner",
          "type": "address"
        },
        {
          "indexed": false,
          "internalType": "uint256",
          "name": "price",
          "type": "uint256"
        },
        {
          "indexed": false,
          "internalType": "bool",
          "name": "sold",
          "type": "bool"
        }
      ],
      "name": "MarketItemCreated",
      "type": "event"
    },
    {
      "anonymous": false,
      "inputs": [
        {
          "indexed": false,
          "internalType": "uint256",
          "name": "_tokenId",
          "type": "uint256"
        }
      ],
      "name": "MetadataUpdate",
      "type": "event"
    },
    {
      "anonymous": false,
      "inputs": [
        {
          "indexed": true,
          "internalType": "address",
          "name": "from",
          "type": "address"
        },
        {
          "indexed": true,
          "internalType": "address",
          "name": "to",
          "type": "address"
        },
        {
          "indexed": true,
          "internalType": "uint256",
          "name": "tokenId",
          "type": "uint256"
        }
      ],
      "name": "Transfer",
      "type": "event"
    },
    {
      "inputs": [
        {
          "internalType": "address",
          "name": "to",
          "type": "address"
        },
        {
          "internalType": "uint256",
          "name": "tokenId",
          "type": "uint256"
        }
      ],
      "name": "approve",
      "outputs": [],
      "stateMutability": "nonpayable",
      "type": "function"
    },
    {
      "inputs": [
        {
          "internalType": "address",
          "name": "owner",
          "type": "address"
        }
      ],
      "name": "balanceOf",
      "outputs": [
        {
          "internalType": "uint256",
          "name": "",
          "type": "uint256"
        }
      ],
      "stateMutability": "view",
      "type": "function"
    },
    {
      "inputs": [
        {
          "internalType": "uint256",
          "name": "tokenId",
          "type": "uint256"
        }
      ],
      "name": "cancelItemListing",
      "outputs": [],
      "stateMutability": "nonpayable",
      "type": "function"
    },
    {
      "inputs": [
        {
          "internalType": "uint256",
          "name": "tokenId",
          "type": "uint256"
        }
      ],
      "name": "createMarketSale",
      "outputs": [],
      "stateMutability": "payable",
      "type": "function"
    },
    {
      "inputs": [
        {
          "internalType": "string",
          "name": "tokenURI",
          "type": "string"
        },
        {
          "internalType": "uint256",
          "name": "price",
          "type": "uint256"
        }
      ],
      "name": "createToken",
      "outputs": [
        {
          "internalType": "uint256",
          "name": "",
          "type": "uint256"
        }
      ],
      "stateMutability": "payable",
      "type": "function"
    },
    {
      "inputs": [],
      "name": "fetchItemsListed",
      "outputs": [
        {
          "components": [
            {
              "internalType": "uint256",
              "name": "tokenId",
              "type": "uint256"
            },
            {
              "internalType": "address payable",
              "name": "seller",
              "type": "address"
            },
            {
              "internalType": "address payable",
              "name": "owner",
              "type": "address"
            },
            {
              "internalType": "uint256",
              "name": "price",
              "type": "uint256"
            },
            {
              "internalType": "bool",
              "name": "sold",
              "type": "bool"
            }
          ],
          "internalType": "struct NFTMarketplace.MarketItem[]",
          "name": "",
          "type": "tuple[]"
        }
      ],
      "stateMutability": "view",
      "type": "function"
    },
    {
      "inputs": [],
      "name": "fetchMarketItems",
      "outputs": [
        {
          "components": [
            {
              "internalType": "uint256",
              "name": "tokenId",
              "type": "uint256"
            },
            {
              "internalType": "address payable",
              "name": "seller",
              "type": "address"
            },
            {
              "internalType": "address payable",
              "name": "owner",
              "type": "address"
            },
            {
              "internalType": "uint256",
              "name": "price",
              "type": "uint256"
            },
            {
              "internalType": "bool",
              "name": "sold",
              "type": "bool"
            }
          ],
          "internalType": "struct NFTMarketplace.MarketItem[]",
          "name": "",
          "type": "tuple[]"
        }
      ],
      "stateMutability": "view",
      "type": "function"
    },
    {
      "inputs": [],
      "name": "fetchMyNFTs",
      "outputs": [
        {
          "components": [
            {
              "internalType": "uint256",
              "name": "tokenId",
              "type": "uint256"
            },
            {
              "internalType": "address payable",
              "name": "seller",
              "type": "address"
            },
            {
              "internalType": "address payable",
              "name": "owner",
              "type": "address"
            },
            {
              "internalType": "uint256",
              "name": "price",
              "type": "uint256"
            },
            {
              "internalType": "bool",
              "name": "sold",
              "type": "bool"
            }
          ],
          "internalType": "struct NFTMarketplace.MarketItem[]",
          "name": "",
          "type": "tuple[]"
        }
      ],
      "stateMutability": "view",
      "type": "function"
    },
    {
      "inputs": [
        {
          "internalType": "uint256",
          "name": "tokenId",
          "type": "uint256"
        }
      ],
      "name": "getApproved",
      "outputs": [
        {
          "internalType": "address",
          "name": "",
          "type": "address"
        }
      ],
      "stateMutability": "view",
      "type": "function"
    },
    {
      "inputs": [],
      "name": "getListingPrice",
      "outputs": [
        {
          "internalType": "uint256",
          "name": "",
          "type": "uint256"
        }
      ],
      "stateMutability": "view",
      "type": "function"
    },
    {
      "inputs": [
        {
          "internalType": "address",
          "name": "owner",
          "type": "address"
        },
        {
          "internalType": "address",
          "name": "operator",
          "type": "address"
        }
      ],
      "name": "isApprovedForAll",
      "outputs": [
        {
          "internalType": "bool",
          "name": "",
          "type": "bool"
        }
      ],
      "stateMutability": "view",
      "type": "function"
    },
    {
      "inputs": [],
      "name": "name",
      "outputs": [
        {
          "internalType": "string",
          "name": "",
          "type": "string"
        }
      ],
      "stateMutability": "view",
      "type": "function"
    },
    {
      "inputs": [
        {
          "internalType": "uint256",
          "name": "tokenId",
          "type": "uint256"
        }
      ],
      "name": "ownerOf",
      "outputs": [
        {
          "internalType": "address",
          "name": "",
          "type": "address"
        }
      ],
      "stateMutability": "view",
      "type": "function"
    },
    {
      "inputs": [
        {
          "internalType": "uint256",
          "name": "tokenId",
          "type": "uint256"
        },
        {
          "internalType": "uint256",
          "name": "price",
          "type": "uint256"
        }
      ],
      "name": "resellToken",
      "outputs": [],
      "stateMutability": "payable",
      "type": "function"
    },
    {
      "inputs": [
        {
          "internalType": "address",
          "name": "from",
          "type": "address"
        },
        {
          "internalType": "address",
          "name": "to",
          "type": "address"
        },
        {
          "internalType": "uint256",
          "name": "tokenId",
          "type": "uint256"
        }
      ],
      "name": "safeTransferFrom",
      "outputs": [],
      "stateMutability": "nonpayable",
      "type": "function"
    },
    {
      "inputs": [
        {
          "internalType": "address",
          "name": "from",
          "type": "address"
        },
        {
          "internalType": "address",
          "name": "to",
          "type": "address"
        },
        {
          "internalType": "uint256",
          "name": "tokenId",
          "type": "uint256"
        },
        {
          "internalType": "bytes",
          "name": "data",
          "type": "bytes"
        }
      ],
      "name": "safeTransferFrom",
      "outputs": [],
      "stateMutability": "nonpayable",
      "type": "function"
    },
    {
      "inputs": [
        {
          "internalType": "address",
          "name": "operator",
          "type": "address"
        },
        {
          "internalType": "bool",
          "name": "approved",
          "type": "bool"
        }
      ],
      "name": "setApprovalForAll",
      "outputs": [],
      "stateMutability": "nonpayable",
      "type": "function"
    },
    {
      "inputs": [
        {
          "internalType": "bytes4",
          "name": "interfaceId",
          "type": "bytes4"
        }
      ],
      "name": "supportsInterface",
      "outputs": [
        {
          "internalType": "bool",
          "name": "",
          "type": "bool"
        }
      ],
      "stateMutability": "view",
      "type": "function"
    },
    {
      "inputs": [],
      "name": "symbol",
      "outputs": [
        {
          "internalType": "string",
          "name": "",
          "type": "string"
        }
      ],
      "stateMutability": "view",
      "type": "function"
    },
    {
      "inputs": [
        {
          "internalType": "uint256",
          "name": "tokenId",
          "type": "uint256"
        }
      ],
      "name": "tokenURI",
      "outputs": [
        {
          "internalType": "string",
          "name": "",
          "type": "string"
        }
      ],
      "stateMutability": "view",
      "type": "function"
    },
    {
      "inputs": [
        {
          "internalType": "address",
          "name": "from",
          "type": "address"
        },
        {
          "internalType": "address",
          "name": "to",
          "type": "address"
        },
        {
          "internalType": "uint256",
          "name": "tokenId",
          "type": "uint256"
        }
      ],
      "name": "transferFrom",
      "outputs": [],
      "stateMutability": "nonpayable",
      "type": "function"
    },
    {
      "inputs": [
        {
          "internalType": "uint256",
          "name": "_listingPrice",
          "type": "uint256"
        }
      ],
      "name": "updateListingPrice",
      "outputs": [],
      "stateMutability": "payable",
      "type": "function"
    }
  ],
  "bytecode": "0x608060405266038d7ea4c6800060095534801561001b57600080fd5b506040518060400160405280601081526020017f4d657461766572736520546f6b656e73000000000000000000000000000000008152506040518060400160405280600481526020017f4d4554410000000000000000000000000000000000000000000000000000000081525081600090816100979190610340565b5080600190816100a79190610340565b50505033600a60006101000a81548173ffffffffffffffffffffffffffffffffffffffff021916908373ffffffffffffffffffffffffffffffffffffffff160217905550610412565b600081519050919050565b7f4e487b7100000000000000000000000000000000000000000000000000000000600052604160045260246000fd5b7f4e487b7100000000000000000000000000000000000000000000000000000000600052602260045260246000fd5b6000600282049050600182168061017157607f821691505b6020821081036101845761018361012a565b5b50919050565b60008190508160005260206000209050919050565b60006020601f8301049050919050565b600082821b905092915050565b6000600883026101ec7fffffffffffffffffffffffffffffffffffffffffffffffffffffffffffffffff826101af565b6101f686836101af565b95508019841693508086168417925050509392505050565b6000819050919050565b6000819050919050565b600061023d6102386102338461020e565b610218565b61020e565b9050919050565b6000819050919050565b61025783610222565b61026b61026382610244565b8484546101bc565b825550505050565b600090565b610280610273565b61028b81848461024e565b505050565b5b818110156102af576102a4600082610278565b600181019050610291565b5050565b601f8211156102f4576102c58161018a565b6102ce8461019f565b810160208510156102dd578190505b6102f16102e98561019f565b830182610290565b50505b505050565b600082821c905092915050565b6000610317600019846008026102f9565b1980831691505092915050565b60006103308383610306565b9150826002028217905092915050565b610349826100f0565b67ffffffffffffffff811115610362576103616100fb565b5b61036c8254610159565b6103778282856102b3565b600060209050601f8311600181146103aa5760008415610398578287015190505b6103a28582610324565b86555061040a565b601f1984166103b88661018a565b60005b828110156103e0578489015182556001820191506020850194506020810190506103bb565b868310156103fd57848901516103f9601f891682610306565b8355505b6001600288020188555050505b505050505050565b6146c0806104216000396000f3fe6080604052600436106101355760003560e01c80636352211e116100ab578063ae677aa31161006f578063ae677aa31461042d578063b88d4fde14610449578063be9af53614610472578063c87b56dd1461048e578063e219fc75146104cb578063e985e9c5146104e757610135565b80636352211e1461032f57806370a082311461036c57806372b3b620146103a957806395d89b41146103d9578063a22cb4651461040457610135565b806312e85585116100fd57806312e8558514610233578063202e37401461025e57806323b872dd14610289578063260070d8146102b257806342842e0e146102db57806345f8fa801461030457610135565b806301ffc9a71461013a57806306fdde0314610177578063081812fc146101a2578063095ea7b3146101df5780630f08efe014610208575b600080fd5b34801561014657600080fd5b50610161600480360381019061015c9190612e16565b610524565b60405161016e9190612e5e565b60405180910390f35b34801561018357600080fd5b5061018c610585565b6040516101999190612f09565b60405180910390f35b3480156101ae57600080fd5b506101c960048036038101906101c49190612f61565b610617565b6040516101d69190612fcf565b60405180910390f35b3480156101eb57600080fd5b5061020660048036038101906102019190613016565b61065d565b005b34801561021457600080fd5b5061021d610774565b60405161022a91906131ac565b60405180910390f35b34801561023f57600080fd5b506102486109d6565b60405161025591906131dd565b60405180910390f35b34801561026a57600080fd5b506102736109e0565b60405161028091906131ac565b60405180910390f35b34801561029557600080fd5b506102b060048036038101906102ab91906131f8565b610cc0565b005b3480156102be57600080fd5b506102d960048036038101906102d49190612f61565b610d20565b005b3480156102e757600080fd5b5061030260048036038101906102fd91906131f8565b610f8b565b005b34801561031057600080fd5b50610319610fab565b60405161032691906131ac565b60405180910390f35b34801561033b57600080fd5b5061035660048036038101906103519190612f61565b61128b565b6040516103639190612fcf565b60405180910390f35b34801561037857600080fd5b50610393600480360381019061038e919061324b565b611311565b6040516103a091906131dd565b60405180910390f35b6103c360048036038101906103be91906133ad565b6113c8565b6040516103d091906131dd565b60405180910390f35b3480156103e557600080fd5b506103ee61140a565b6040516103fb9190612f09565b60405180910390f35b34801561041057600080fd5b5061042b60048036038101906104269190613435565b61149c565b005b61044760048036038101906104429190612f61565b6114b2565b005b34801561045557600080fd5b50610470600480360381019061046b9190613516565b61154c565b005b61048c60048036038101906104879190612f61565b6115ae565b005b34801561049a57600080fd5b506104b560048036038101906104b09190612f61565b6117ec565b6040516104c29190612f09565b60405180910390f35b6104e560048036038101906104e09190613599565b6118fe565b005b3480156104f357600080fd5b5061050e600480360381019061050991906135d9565b611af3565b60405161051b9190612e5e565b60405180910390f35b6000634906490660e01b7bffffffffffffffffffffffffffffffffffffffffffffffffffffffff1916827bffffffffffffffffffffffffffffffffffffffffffffffffffffffff1916148061057e575061057d82611b87565b5b9050919050565b60606000805461059490613648565b80601f01602080910402602001604051908101604052809291908181526020018280546105c090613648565b801561060d5780601f106105e25761010080835404028352916020019161060d565b820191906000526020600020905b8154815290600101906020018083116105f057829003601f168201915b5050505050905090565b600061062282611c69565b6004600083815260200190815260200160002060009054906101000a900473ffffffffffffffffffffffffffffffffffffffff169050919050565b60006106688261128b565b90508073ffffffffffffffffffffffffffffffffffffffff168373ffffffffffffffffffffffffffffffffffffffff16036106d8576040517f08c379a00000000000000000000000000000000000000000000000000000000081526004016106cf906136eb565b60405180910390fd5b8073ffffffffffffffffffffffffffffffffffffffff166106f7611cb4565b73ffffffffffffffffffffffffffffffffffffffff161480610726575061072581610720611cb4565b611af3565b5b610765576040517f08c379a000000000000000000000000000000000000000000000000000000000815260040161075c9061377d565b60405180910390fd5b61076f8383611cbc565b505050565b606060006107826007611d75565b905060006107906008611d75565b61079a6007611d75565b6107a491906137cc565b90506000808267ffffffffffffffff8111156107c3576107c2613282565b5b6040519080825280602002602001820160405280156107fc57816020015b6107e9612d4d565b8152602001906001900390816107e15790505b50905060005b848110156109cb573073ffffffffffffffffffffffffffffffffffffffff16600b60006001846108329190613800565b815260200190815260200160002060020160009054906101000a900473ffffffffffffffffffffffffffffffffffffffff1673ffffffffffffffffffffffffffffffffffffffff16036109be57600060018261088e9190613800565b90506000600b60008381526020019081526020016000209050806040518060a0016040529081600082015481526020016001820160009054906101000a900473ffffffffffffffffffffffffffffffffffffffff1673ffffffffffffffffffffffffffffffffffffffff1673ffffffffffffffffffffffffffffffffffffffff1681526020016002820160009054906101000a900473ffffffffffffffffffffffffffffffffffffffff1673ffffffffffffffffffffffffffffffffffffffff1673ffffffffffffffffffffffffffffffffffffffff168152602001600382015481526020016004820160009054906101000a900460ff1615151515815250508486815181106109a1576109a0613834565b5b60200260200101819052506001856109b99190613800565b945050505b8080600101915050610802565b508094505050505090565b6000600954905090565b606060006109ee6007611d75565b905060008060005b83811015610a90573373ffffffffffffffffffffffffffffffffffffffff16600b6000600184610a269190613800565b815260200190815260200160002060020160009054906101000a900473ffffffffffffffffffffffffffffffffffffffff1673ffffffffffffffffffffffffffffffffffffffff1603610a8357600183610a809190613800565b92505b80806001019150506109f6565b5060008267ffffffffffffffff811115610aad57610aac613282565b5b604051908082528060200260200182016040528015610ae657816020015b610ad3612d4d565b815260200190600190039081610acb5790505b50905060005b84811015610cb5573373ffffffffffffffffffffffffffffffffffffffff16600b6000600184610b1c9190613800565b815260200190815260200160002060020160009054906101000a900473ffffffffffffffffffffffffffffffffffffffff1673ffffffffffffffffffffffffffffffffffffffff1603610ca8576000600182610b789190613800565b90506000600b60008381526020019081526020016000209050806040518060a0016040529081600082015481526020016001820160009054906101000a900473ffffffffffffffffffffffffffffffffffffffff1673ffffffffffffffffffffffffffffffffffffffff1673ffffffffffffffffffffffffffffffffffffffff1681526020016002820160009054906101000a900473ffffffffffffffffffffffffffffffffffffffff1673ffffffffffffffffffffffffffffffffffffffff1673ffffffffffffffffffffffffffffffffffffffff168152602001600382015481526020016004820160009054906101000a900460ff161515151581525050848681518110610c8b57610c8a613834565b5b6020026020010181905250600185610ca39190613800565b945050505b8080600101915050610aec565b508094505050505090565b610cd1610ccb611cb4565b82611d83565b610d10576040517f08c379a0000000000000000000000000000000000000000000000000000000008152600401610d07906138d5565b60405180910390fd5b610d1b838383611e18565b505050565b3373ffffffffffffffffffffffffffffffffffffffff16600b600083815260200190815260200160002060010160009054906101000a900473ffffffffffffffffffffffffffffffffffffffff1673ffffffffffffffffffffffffffffffffffffffff1614610dc4576040517f08c379a0000000000000000000000000000000000000000000000000000000008152600401610dbb90613967565b60405180910390fd5b60001515600b600083815260200190815260200160002060040160009054906101000a900460ff16151514610e2e576040517f08c379a0000000000000000000000000000000000000000000000000000000008152600401610e25906139f9565b60405180910390fd5b33600b600083815260200190815260200160002060020160006101000a81548173ffffffffffffffffffffffffffffffffffffffff021916908373ffffffffffffffffffffffffffffffffffffffff1602179055506000600b600083815260200190815260200160002060010160006101000a81548173ffffffffffffffffffffffffffffffffffffffff021916908373ffffffffffffffffffffffffffffffffffffffff1602179055506001600b600083815260200190815260200160002060040160006101000a81548160ff021916908315150217905550610f126008612111565b600a60009054906101000a900473ffffffffffffffffffffffffffffffffffffffff1673ffffffffffffffffffffffffffffffffffffffff166108fc6009549081150290604051600060405180830381858888f19350505050158015610f7c573d6000803e3d6000fd5b50610f88303383611e18565b50565b610fa68383836040518060200160405280600081525061154c565b505050565b60606000610fb96007611d75565b905060008060005b8381101561105b573373ffffffffffffffffffffffffffffffffffffffff16600b6000600184610ff19190613800565b815260200190815260200160002060010160009054906101000a900473ffffffffffffffffffffffffffffffffffffffff1673ffffffffffffffffffffffffffffffffffffffff160361104e5760018361104b9190613800565b92505b8080600101915050610fc1565b5060008267ffffffffffffffff81111561107857611077613282565b5b6040519080825280602002602001820160405280156110b157816020015b61109e612d4d565b8152602001906001900390816110965790505b50905060005b84811015611280573373ffffffffffffffffffffffffffffffffffffffff16600b60006001846110e79190613800565b815260200190815260200160002060010160009054906101000a900473ffffffffffffffffffffffffffffffffffffffff1673ffffffffffffffffffffffffffffffffffffffff16036112735760006001826111439190613800565b90506000600b60008381526020019081526020016000209050806040518060a0016040529081600082015481526020016001820160009054906101000a900473ffffffffffffffffffffffffffffffffffffffff1673ffffffffffffffffffffffffffffffffffffffff1673ffffffffffffffffffffffffffffffffffffffff1681526020016002820160009054906101000a900473ffffffffffffffffffffffffffffffffffffffff1673ffffffffffffffffffffffffffffffffffffffff1673ffffffffffffffffffffffffffffffffffffffff168152602001600382015481526020016004820160009054906101000a900460ff16151515158152505084868151811061125657611255613834565b5b602002602001018190525060018561126e9190613800565b945050505b80806001019150506110b7565b508094505050505090565b60008061129783612127565b9050600073ffffffffffffffffffffffffffffffffffffffff168173ffffffffffffffffffffffffffffffffffffffff1603611308576040517f08c379a00000000000000000000000000000000000000000000000000000000081526004016112ff90613a65565b60405180910390fd5b80915050919050565b60008073ffffffffffffffffffffffffffffffffffffffff168273ffffffffffffffffffffffffffffffffffffffff1603611381576040517f08c379a000000000000000000000000000000000000000000000000000000000815260040161137890613af7565b60405180910390fd5b600360008373ffffffffffffffffffffffffffffffffffffffff1673ffffffffffffffffffffffffffffffffffffffff168152602001908152602001600020549050919050565b60006113d46007612111565b60006113e06007611d75565b90506113ec3382612164565b6113f68185612381565b6114008184612425565b8091505092915050565b60606001805461141990613648565b80601f016020809104026020016040519081016040528092919081815260200182805461144590613648565b80156114925780601f1061146757610100808354040283529160200191611492565b820191906000526020600020905b81548152906001019060200180831161147557829003601f168201915b5050505050905090565b6114ae6114a7611cb4565b8383612628565b5050565b3373ffffffffffffffffffffffffffffffffffffffff16600a60009054906101000a900473ffffffffffffffffffffffffffffffffffffffff1673ffffffffffffffffffffffffffffffffffffffff1614611542576040517f08c379a000000000000000000000000000000000000000000000000000000000815260040161153990613b89565b60405180910390fd5b8060098190555050565b61155d611557611cb4565b83611d83565b61159c576040517f08c379a0000000000000000000000000000000000000000000000000000000008152600401611593906138d5565b60405180910390fd5b6115a884848484612794565b50505050565b6000600b60008381526020019081526020016000206003015490506000600b600084815260200190815260200160002060010160009054906101000a900473ffffffffffffffffffffffffffffffffffffffff169050813414611646576040517f08c379a000000000000000000000000000000000000000000000000000000000815260040161163d90613c1b565b60405180910390fd5b33600b600085815260200190815260200160002060020160006101000a81548173ffffffffffffffffffffffffffffffffffffffff021916908373ffffffffffffffffffffffffffffffffffffffff1602179055506001600b600085815260200190815260200160002060040160006101000a81548160ff0219169083151502179055506000600b600085815260200190815260200160002060010160006101000a81548173ffffffffffffffffffffffffffffffffffffffff021916908373ffffffffffffffffffffffffffffffffffffffff16021790555061172a6008612111565b611735303385611e18565b600a60009054906101000a900473ffffffffffffffffffffffffffffffffffffffff1673ffffffffffffffffffffffffffffffffffffffff166108fc6009549081150290604051600060405180830381858888f1935050505015801561179f573d6000803e3d6000fd5b508073ffffffffffffffffffffffffffffffffffffffff166108fc349081150290604051600060405180830381858888f193505050501580156117e6573d6000803e3d6000fd5b50505050565b60606117f782611c69565b600060066000848152602001908152602001600020805461181790613648565b80601f016020809104026020016040519081016040528092919081815260200182805461184390613648565b80156118905780601f1061186557610100808354040283529160200191611890565b820191906000526020600020905b81548152906001019060200180831161187357829003601f168201915b5050505050905060006118a16127f0565b905060008151036118b65781925050506118f9565b6000825111156118eb5780826040516020016118d3929190613c77565b604051602081830303815290604052925050506118f9565b6118f484612807565b925050505b919050565b3373ffffffffffffffffffffffffffffffffffffffff16600b600084815260200190815260200160002060020160009054906101000a900473ffffffffffffffffffffffffffffffffffffffff1673ffffffffffffffffffffffffffffffffffffffff16146119a2576040517f08c379a000000000000000000000000000000000000000000000000000000000815260040161199990613d0d565b60405180910390fd5b60095434146119e6576040517f08c379a00000000000000000000000000000000000000000000000000000000081526004016119dd90613d9f565b60405180910390fd5b6000600b600084815260200190815260200160002060040160006101000a81548160ff02191690831515021790555080600b60008481526020019081526020016000206003018190555033600b600084815260200190815260200160002060010160006101000a81548173ffffffffffffffffffffffffffffffffffffffff021916908373ffffffffffffffffffffffffffffffffffffffff16021790555030600b600084815260200190815260200160002060020160006101000a81548173ffffffffffffffffffffffffffffffffffffffff021916908373ffffffffffffffffffffffffffffffffffffffff160217905550611ae4600861286f565b611aef333084611e18565b5050565b6000600560008473ffffffffffffffffffffffffffffffffffffffff1673ffffffffffffffffffffffffffffffffffffffff16815260200190815260200160002060008373ffffffffffffffffffffffffffffffffffffffff1673ffffffffffffffffffffffffffffffffffffffff16815260200190815260200160002060009054906101000a900460ff16905092915050565b60007f80ac58cd000000000000000000000000000000000000000000000000000000007bffffffffffffffffffffffffffffffffffffffffffffffffffffffff1916827bffffffffffffffffffffffffffffffffffffffffffffffffffffffff19161480611c5257507f5b5e139f000000000000000000000000000000000000000000000000000000007bffffffffffffffffffffffffffffffffffffffffffffffffffffffff1916827bffffffffffffffffffffffffffffffffffffffffffffffffffffffff1916145b80611c625750611c61826128cb565b5b9050919050565b611c7281612935565b611cb1576040517f08c379a0000000000000000000000000000000000000000000000000000000008152600401611ca890613a65565b60405180910390fd5b50565b600033905090565b816004600083815260200190815260200160002060006101000a81548173ffffffffffffffffffffffffffffffffffffffff021916908373ffffffffffffffffffffffffffffffffffffffff160217905550808273ffffffffffffffffffffffffffffffffffffffff16611d2f8361128b565b73ffffffffffffffffffffffffffffffffffffffff167f8c5be1e5ebec7d5bd14f71427d1e84f3dd0314c0f7b2291e5b200ac8c7c3b92560405160405180910390a45050565b600081600001549050919050565b600080611d8f8361128b565b90508073ffffffffffffffffffffffffffffffffffffffff168473ffffffffffffffffffffffffffffffffffffffff161480611dd15750611dd08185611af3565b5b80611e0f57508373ffffffffffffffffffffffffffffffffffffffff16611df784610617565b73ffffffffffffffffffffffffffffffffffffffff16145b91505092915050565b8273ffffffffffffffffffffffffffffffffffffffff16611e388261128b565b73ffffffffffffffffffffffffffffffffffffffff1614611e8e576040517f08c379a0000000000000000000000000000000000000000000000000000000008152600401611e8590613e31565b60405180910390fd5b600073ffffffffffffffffffffffffffffffffffffffff168273ffffffffffffffffffffffffffffffffffffffff1603611efd576040517f08c379a0000000000000000000000000000000000000000000000000000000008152600401611ef490613ec3565b60405180910390fd5b611f0a8383836001612976565b8273ffffffffffffffffffffffffffffffffffffffff16611f2a8261128b565b73ffffffffffffffffffffffffffffffffffffffff1614611f80576040517f08c379a0000000000000000000000000000000000000000000000000000000008152600401611f7790613e31565b60405180910390fd5b6004600082815260200190815260200160002060006101000a81549073ffffffffffffffffffffffffffffffffffffffff02191690556001600360008573ffffffffffffffffffffffffffffffffffffffff1673ffffffffffffffffffffffffffffffffffffffff168152602001908152602001600020600082825403925050819055506001600360008473ffffffffffffffffffffffffffffffffffffffff1673ffffffffffffffffffffffffffffffffffffffff16815260200190815260200160002060008282540192505081905550816002600083815260200190815260200160002060006101000a81548173ffffffffffffffffffffffffffffffffffffffff021916908373ffffffffffffffffffffffffffffffffffffffff160217905550808273ffffffffffffffffffffffffffffffffffffffff168473ffffffffffffffffffffffffffffffffffffffff167fddf252ad1be2c89b69c2b068fc378daa952ba7f163c4a11628f55a4df523b3ef60405160405180910390a461210c838383600161297c565b505050565b6001816000016000828254019250508190555050565b60006002600083815260200190815260200160002060009054906101000a900473ffffffffffffffffffffffffffffffffffffffff169050919050565b600073ffffffffffffffffffffffffffffffffffffffff168273ffffffffffffffffffffffffffffffffffffffff16036121d3576040517f08c379a00000000000000000000000000000000000000000000000000000000081526004016121ca90613f2f565b60405180910390fd5b6121dc81612935565b1561221c576040517f08c379a000000000000000000000000000000000000000000000000000000000815260040161221390613f9b565b60405180910390fd5b61222a600083836001612976565b61223381612935565b15612273576040517f08c379a000000000000000000000000000000000000000000000000000000000815260040161226a90613f9b565b60405180910390fd5b6001600360008473ffffffffffffffffffffffffffffffffffffffff1673ffffffffffffffffffffffffffffffffffffffff16815260200190815260200160002060008282540192505081905550816002600083815260200190815260200160002060006101000a81548173ffffffffffffffffffffffffffffffffffffffff021916908373ffffffffffffffffffffffffffffffffffffffff160217905550808273ffffffffffffffffffffffffffffffffffffffff16600073ffffffffffffffffffffffffffffffffffffffff167fddf252ad1be2c89b69c2b068fc378daa952ba7f163c4a11628f55a4df523b3ef60405160405180910390a461237d60008383600161297c565b5050565b61238a82612935565b6123c9576040517f08c379a00000000000000000000000000000000000000000000000000000000081526004016123c09061402d565b60405180910390fd5b806006600084815260200190815260200160002090816123e991906141f9565b507ff8e1a15aba9398e019f0b49df1a4fde98ee17ae345cb5f6b5e2c27f5033e8ce78260405161241991906131dd565b60405180910390a15050565b60008111612468576040517f08c379a000000000000000000000000000000000000000000000000000000000815260040161245f90614317565b60405180910390fd5b60095434146124ac576040517f08c379a00000000000000000000000000000000000000000000000000000000081526004016124a3906143a9565b60405180910390fd5b6040518060a001604052808381526020013373ffffffffffffffffffffffffffffffffffffffff1681526020013073ffffffffffffffffffffffffffffffffffffffff16815260200182815260200160001515815250600b60008481526020019081526020016000206000820151816000015560208201518160010160006101000a81548173ffffffffffffffffffffffffffffffffffffffff021916908373ffffffffffffffffffffffffffffffffffffffff16021790555060408201518160020160006101000a81548173ffffffffffffffffffffffffffffffffffffffff021916908373ffffffffffffffffffffffffffffffffffffffff1602179055506060820151816003015560808201518160040160006101000a81548160ff0219169083151502179055509050506125e5333084611e18565b817fb640004f1d14576d0c209e240cad0410e0d8c0c33a09375861fbadae2588a98d333084600060405161261c94939291906143c9565b60405180910390a25050565b8173ffffffffffffffffffffffffffffffffffffffff168373ffffffffffffffffffffffffffffffffffffffff1603612696576040517f08c379a000000000000000000000000000000000000000000000000000000000815260040161268d9061445a565b60405180910390fd5b80600560008573ffffffffffffffffffffffffffffffffffffffff1673ffffffffffffffffffffffffffffffffffffffff16815260200190815260200160002060008473ffffffffffffffffffffffffffffffffffffffff1673ffffffffffffffffffffffffffffffffffffffff16815260200190815260200160002060006101000a81548160ff0219169083151502179055508173ffffffffffffffffffffffffffffffffffffffff168373ffffffffffffffffffffffffffffffffffffffff167f17307eab39ab6107e8899845ad3d59bd9653f200f220920489ca2b5937696c31836040516127879190612e5e565b60405180910390a3505050565b61279f848484611e18565b6127ab84848484612982565b6127ea576040517f08c379a00000000000000000000000000000000000000000000000000000000081526004016127e1906144ec565b60405180910390fd5b50505050565b606060405180602001604052806000815250905090565b606061281282611c69565b600061281c6127f0565b9050600081511161283c5760405180602001604052806000815250612867565b8061284684612b09565b604051602001612857929190613c77565b6040516020818303038152906040525b915050919050565b600081600001549050600081116128bb576040517f08c379a00000000000000000000000000000000000000000000000000000000081526004016128b290614558565b60405180910390fd5b6001810382600001819055505050565b60007f01ffc9a7000000000000000000000000000000000000000000000000000000007bffffffffffffffffffffffffffffffffffffffffffffffffffffffff1916827bffffffffffffffffffffffffffffffffffffffffffffffffffffffff1916149050919050565b60008073ffffffffffffffffffffffffffffffffffffffff1661295783612127565b73ffffffffffffffffffffffffffffffffffffffff1614159050919050565b50505050565b50505050565b60006129a38473ffffffffffffffffffffffffffffffffffffffff16612bd7565b15612afc578373ffffffffffffffffffffffffffffffffffffffff1663150b7a026129cc611cb4565b8786866040518563ffffffff1660e01b81526004016129ee94939291906145cd565b6020604051808303816000875af1925050508015612a2a57506040513d601f19601f82011682018060405250810190612a27919061462e565b60015b612aac573d8060008114612a5a576040519150601f19603f3d011682016040523d82523d6000602084013e612a5f565b606091505b506000815103612aa4576040517f08c379a0000000000000000000000000000000000000000000000000000000008152600401612a9b906144ec565b60405180910390fd5b805181602001fd5b63150b7a0260e01b7bffffffffffffffffffffffffffffffffffffffffffffffffffffffff1916817bffffffffffffffffffffffffffffffffffffffffffffffffffffffff191614915050612b01565b600190505b949350505050565b606060006001612b1884612bfa565b01905060008167ffffffffffffffff811115612b3757612b36613282565b5b6040519080825280601f01601f191660200182016040528015612b695781602001600182028036833780820191505090505b509050600082602001820190505b600115612bcc578080600190039150507f3031323334353637383961626364656600000000000000000000000000000000600a86061a8153600a8581612bc057612bbf61465b565b5b04945060008503612b77575b819350505050919050565b6000808273ffffffffffffffffffffffffffffffffffffffff163b119050919050565b600080600090507a184f03e93ff9f4daa797ed6e38ed64bf6a1f0100000000000000008310612c58577a184f03e93ff9f4daa797ed6e38ed64bf6a1f0100000000000000008381612c4e57612c4d61465b565b5b0492506040810190505b6d04ee2d6d415b85acef81000000008310612c95576d04ee2d6d415b85acef81000000008381612c8b57612c8a61465b565b5b0492506020810190505b662386f26fc100008310612cc457662386f26fc100008381612cba57612cb961465b565b5b0492506010810190505b6305f5e1008310612ced576305f5e1008381612ce357612ce261465b565b5b0492506008810190505b6127108310612d12576127108381612d0857612d0761465b565b5b0492506004810190505b60648310612d355760648381612d2b57612d2a61465b565b5b0492506002810190505b600a8310612d44576001810190505b80915050919050565b6040518060a0016040528060008152602001600073ffffffffffffffffffffffffffffffffffffffff168152602001600073ffffffffffffffffffffffffffffffffffffffff168152602001600081526020016000151581525090565b6000604051905090565b600080fd5b600080fd5b60007fffffffff0000000000000000000000000000000000000000000000000000000082169050919050565b612df381612dbe565b8114612dfe57600080fd5b50565b600081359050612e1081612dea565b92915050565b600060208284031215612e2c57612e2b612db4565b5b6000612e3a84828501612e01565b91505092915050565b60008115159050919050565b612e5881612e43565b82525050565b6000602082019050612e736000830184612e4f565b92915050565b600081519050919050565b600082825260208201905092915050565b60005b83811015612eb3578082015181840152602081019050612e98565b60008484015250505050565b6000601f19601f8301169050919050565b6000612edb82612e79565b612ee58185612e84565b9350612ef5818560208601612e95565b612efe81612ebf565b840191505092915050565b60006020820190508181036000830152612f238184612ed0565b905092915050565b6000819050919050565b612f3e81612f2b565b8114612f4957600080fd5b50565b600081359050612f5b81612f35565b92915050565b600060208284031215612f7757612f76612db4565b5b6000612f8584828501612f4c565b91505092915050565b600073ffffffffffffffffffffffffffffffffffffffff82169050919050565b6000612fb982612f8e565b9050919050565b612fc981612fae565b82525050565b6000602082019050612fe46000830184612fc0565b92915050565b612ff381612fae565b8114612ffe57600080fd5b50565b60008135905061301081612fea565b92915050565b6000806040838503121561302d5761302c612db4565b5b600061303b85828601613001565b925050602061304c85828601612f4c565b9150509250929050565b600081519050919050565b600082825260208201905092915050565b6000819050602082019050919050565b61308b81612f2b565b82525050565b600061309c82612f8e565b9050919050565b6130ac81613091565b82525050565b6130bb81612e43565b82525050565b60a0820160008201516130d76000850182613082565b5060208201516130ea60208501826130a3565b5060408201516130fd60408501826130a3565b5060608201516131106060850182613082565b50608082015161312360808501826130b2565b50505050565b600061313583836130c1565b60a08301905092915050565b6000602082019050919050565b600061315982613056565b6131638185613061565b935061316e83613072565b8060005b8381101561319f5781516131868882613129565b975061319183613141565b925050600181019050613172565b5085935050505092915050565b600060208201905081810360008301526131c6818461314e565b905092915050565b6131d781612f2b565b82525050565b60006020820190506131f260008301846131ce565b92915050565b60008060006060848603121561321157613210612db4565b5b600061321f86828701613001565b935050602061323086828701613001565b925050604061324186828701612f4c565b9150509250925092565b60006020828403121561326157613260612db4565b5b600061326f84828501613001565b91505092915050565b600080fd5b600080fd5b7f4e487b7100000000000000000000000000000000000000000000000000000000600052604160045260246000fd5b6132ba82612ebf565b810181811067ffffffffffffffff821117156132d9576132d8613282565b5b80604052505050565b60006132ec612daa565b90506132f882826132b1565b919050565b600067ffffffffffffffff82111561331857613317613282565b5b61332182612ebf565b9050602081019050919050565b82818337600083830152505050565b600061335061334b846132fd565b6132e2565b90508281526020810184848401111561336c5761336b61327d565b5b61337784828561332e565b509392505050565b600082601f83011261339457613393613278565b5b81356133a484826020860161333d565b91505092915050565b600080604083850312156133c4576133c3612db4565b5b600083013567ffffffffffffffff8111156133e2576133e1612db9565b5b6133ee8582860161337f565b92505060206133ff85828601612f4c565b9150509250929050565b61341281612e43565b811461341d57600080fd5b50565b60008135905061342f81613409565b92915050565b6000806040838503121561344c5761344b612db4565b5b600061345a85828601613001565b925050602061346b85828601613420565b9150509250929050565b600067ffffffffffffffff8211156134905761348f613282565b5b61349982612ebf565b9050602081019050919050565b60006134b96134b484613475565b6132e2565b9050828152602081018484840111156134d5576134d461327d565b5b6134e084828561332e565b509392505050565b600082601f8301126134fd576134fc613278565b5b813561350d8482602086016134a6565b91505092915050565b600080600080608085870312156135305761352f612db4565b5b600061353e87828801613001565b945050602061354f87828801613001565b935050604061356087828801612f4c565b925050606085013567ffffffffffffffff81111561358157613580612db9565b5b61358d878288016134e8565b91505092959194509250565b600080604083850312156135b0576135af612db4565b5b60006135be85828601612f4c565b92505060206135cf85828601612f4c565b9150509250929050565b600080604083850312156135f0576135ef612db4565b5b60006135fe85828601613001565b925050602061360f85828601613001565b9150509250929050565b7f4e487b7100000000000000000000000000000000000000000000000000000000600052602260045260246000fd5b6000600282049050600182168061366057607f821691505b60208210810361367357613672613619565b5b50919050565b7f4552433732313a20617070726f76616c20746f2063757272656e74206f776e6560008201527f7200000000000000000000000000000000000000000000000000000000000000602082015250565b60006136d5602183612e84565b91506136e082613679565b604082019050919050565b60006020820190508181036000830152613704816136c8565b9050919050565b7f4552433732313a20617070726f76652063616c6c6572206973206e6f7420746f60008201527f6b656e206f776e6572206f7220617070726f76656420666f7220616c6c000000602082015250565b6000613767603d83612e84565b91506137728261370b565b604082019050919050565b600060208201905081810360008301526137968161375a565b9050919050565b7f4e487b7100000000000000000000000000000000000000000000000000000000600052601160045260246000fd5b60006137d782612f2b565b91506137e283612f2b565b92508282039050818111156137fa576137f961379d565b5b92915050565b600061380b82612f2b565b915061381683612f2b565b925082820190508082111561382e5761382d61379d565b5b92915050565b7f4e487b7100000000000000000000000000000000000000000000000000000000600052603260045260246000fd5b7f4552433732313a2063616c6c6572206973206e6f7420746f6b656e206f776e6560008201527f72206f7220617070726f76656400000000000000000000000000000000000000602082015250565b60006138bf602d83612e84565b91506138ca82613863565b604082019050919050565b600060208201905081810360008301526138ee816138b2565b9050919050565b7f4f6e6c79206974656d2073656c6c65722063616e20706572666f726d2074686960008201527f73206f7065726174696f6e000000000000000000000000000000000000000000602082015250565b6000613951602b83612e84565b915061395c826138f5565b604082019050919050565b6000602082019050818103600083015261398081613944565b9050919050565b7f4f6e6c792063616e63656c206974656d7320776869636820617265206e6f742060008201527f736f6c6420796574000000000000000000000000000000000000000000000000602082015250565b60006139e3602883612e84565b91506139ee82613987565b604082019050919050565b60006020820190508181036000830152613a12816139d6565b9050919050565b7f4552433732313a20696e76616c696420746f6b656e2049440000000000000000600082015250565b6000613a4f601883612e84565b9150613a5a82613a19565b602082019050919050565b60006020820190508181036000830152613a7e81613a42565b9050919050565b7f4552433732313a2061646472657373207a65726f206973206e6f74206120766160008201527f6c6964206f776e65720000000000000000000000000000000000000000000000602082015250565b6000613ae1602983612e84565b9150613aec82613a85565b604082019050919050565b60006020820190508181036000830152613b1081613ad4565b9050919050565b7f4f6e6c79206d61726b6574706c616365206f776e65722063616e20757064617460008201527f65206c697374696e672070726963650000000000000000000000000000000000602082015250565b6000613b73602f83612e84565b9150613b7e82613b17565b604082019050919050565b60006020820190508181036000830152613ba281613b66565b9050919050565b7f506c65617365207375626d6974207468652061736b696e67207072696365206960008201527f6e206f7264657220746f20636f6d706c65746520746865207075726368617365602082015250565b6000613c05604083612e84565b9150613c1082613ba9565b604082019050919050565b60006020820190508181036000830152613c3481613bf8565b9050919050565b600081905092915050565b6000613c5182612e79565b613c5b8185613c3b565b9350613c6b818560208601612e95565b80840191505092915050565b6000613c838285613c46565b9150613c8f8284613c46565b91508190509392505050565b7f4f6e6c79206974656d73206f776e65722063616e20706572666f726d2074686960008201527f73206f7065726174696f6e000000000000000000000000000000000000000000602082015250565b6000613cf7602b83612e84565b9150613d0282613c9b565b604082019050919050565b60006020820190508181036000830152613d2681613cea565b9050919050565b7f5072696365206d75737420626520657175616c20746f206c697374696e67207060008201527f7269636500000000000000000000000000000000000000000000000000000000602082015250565b6000613d89602483612e84565b9150613d9482613d2d565b604082019050919050565b60006020820190508181036000830152613db881613d7c565b9050919050565b7f4552433732313a207472616e736665722066726f6d20696e636f72726563742060008201527f6f776e6572000000000000000000000000000000000000000000000000000000602082015250565b6000613e1b602583612e84565b9150613e2682613dbf565b604082019050919050565b60006020820190508181036000830152613e4a81613e0e565b9050919050565b7f4552433732313a207472616e7366657220746f20746865207a65726f2061646460008201527f7265737300000000000000000000000000000000000000000000000000000000602082015250565b6000613ead602483612e84565b9150613eb882613e51565b604082019050919050565b60006020820190508181036000830152613edc81613ea0565b9050919050565b7f4552433732313a206d696e7420746f20746865207a65726f2061646472657373600082015250565b6000613f19602083612e84565b9150613f2482613ee3565b602082019050919050565b60006020820190508181036000830152613f4881613f0c565b9050919050565b7f4552433732313a20746f6b656e20616c7265616479206d696e74656400000000600082015250565b6000613f85601c83612e84565b9150613f9082613f4f565b602082019050919050565b60006020820190508181036000830152613fb481613f78565b9050919050565b7f45524337323155524953746f726167653a2055524920736574206f66206e6f6e60008201527f6578697374656e7420746f6b656e000000000000000000000000000000000000602082015250565b6000614017602e83612e84565b915061402282613fbb565b604082019050919050565b600060208201905081810360008301526140468161400a565b9050919050565b60008190508160005260206000209050919050565b60006020601f8301049050919050565b600082821b905092915050565b6000600883026140af7fffffffffffffffffffffffffffffffffffffffffffffffffffffffffffffffff82614072565b6140b98683614072565b95508019841693508086168417925050509392505050565b6000819050919050565b60006140f66140f16140ec84612f2b565b6140d1565b612f2b565b9050919050565b6000819050919050565b614110836140db565b61412461411c826140fd565b84845461407f565b825550505050565b600090565b61413961412c565b614144818484614107565b505050565b5b818110156141685761415d600082614131565b60018101905061414a565b5050565b601f8211156141ad5761417e8161404d565b61418784614062565b81016020851015614196578190505b6141aa6141a285614062565b830182614149565b50505b505050565b600082821c905092915050565b60006141d0600019846008026141b2565b1980831691505092915050565b60006141e983836141bf565b9150826002028217905092915050565b61420282612e79565b67ffffffffffffffff81111561421b5761421a613282565b5b6142258254613648565b61423082828561416c565b600060209050601f8311600181146142635760008415614251578287015190505b61425b85826141dd565b8655506142c3565b601f1984166142718661404d565b60005b8281101561429957848901518255600182019150602085019450602081019050614274565b868310156142b657848901516142b2601f8916826141bf565b8355505b6001600288020188555050505b505050505050565b7f5072696365206d7573742062652067726561746572207468616e207a65726f00600082015250565b6000614301601f83612e84565b915061430c826142cb565b602082019050919050565b60006020820190508181036000830152614330816142f4565b9050919050565b7f7072696365206d75737420626520657175616c20746f206c697374696e67207060008201527f7269636500000000000000000000000000000000000000000000000000000000602082015250565b6000614393602483612e84565b915061439e82614337565b604082019050919050565b600060208201905081810360008301526143c281614386565b9050919050565b60006080820190506143de6000830187612fc0565b6143eb6020830186612fc0565b6143f860408301856131ce565b6144056060830184612e4f565b95945050505050565b7f4552433732313a20617070726f766520746f2063616c6c657200000000000000600082015250565b6000614444601983612e84565b915061444f8261440e565b602082019050919050565b6000602082019050818103600083015261447381614437565b9050919050565b7f4552433732313a207472616e7366657220746f206e6f6e20455243373231526560008201527f63656976657220696d706c656d656e7465720000000000000000000000000000602082015250565b60006144d6603283612e84565b91506144e18261447a565b604082019050919050565b60006020820190508181036000830152614505816144c9565b9050919050565b7f436f756e7465723a2064656372656d656e74206f766572666c6f770000000000600082015250565b6000614542601b83612e84565b915061454d8261450c565b602082019050919050565b6000602082019050818103600083015261457181614535565b9050919050565b600081519050919050565b600082825260208201905092915050565b600061459f82614578565b6145a98185614583565b93506145b9818560208601612e95565b6145c281612ebf565b840191505092915050565b60006080820190506145e26000830187612fc0565b6145ef6020830186612fc0565b6145fc60408301856131ce565b818103606083015261460e8184614594565b905095945050505050565b60008151905061462881612dea565b92915050565b60006020828403121561464457614643612db4565b5b600061465284828501614619565b91505092915050565b7f4e487b7100000000000000000000000000000000000000000000000000000000600052601260045260246000fdfea2646970667358221220cb628e9f622e4912714b8c60e48b45de7ea777786b16e7a405760ae14cca354e64736f6c634300081c0033",
  "linkReferences": {},
  "deployedLinkReferences": {}
}